:1000000008010010CD000000C1000000C300000086
:1000100000000000000000000000000000000000E0
:10002000000000000000000000000000C50000000B
:100030000000000000000000C7000000C900000030
:10004000CB000000CB00000000000000CB0000004F
:10005000CB000000CB00000000000000000000000A
:10006000CB000000CB00000055050000CB000000D5
:10007000CB000000CB00000000000000CB0000001F
:100080000000000000000000000000000000000070
:100090000000000000000000000000000000000060
:1000A000CB000000CB000000CB000000CB00000024
:1000B000CB000000CB000000CB000000CB00000014
:1000C000FEE7FEE7FEE7FEE7FEE7FEE708B500F025
:1000D000ABFD0022094B0A49D3188B4204D20949CF
:1000E000895804321960F5E7074B084A934202D257
:1000F000002204C3F9E700F0CBF9FEE7000000108E
:1001000004000010FC0F00000400001008010010A3
:10011000064B074A41211A60064A4942DA61FE222B
:1001200052421A62E02252009950704700C00040CB
:100130000400FFFFFFFFFF0310B5614800F030FC33
:1001400000F0B8FA0028FBD100F0BCFA002806D075
:10015000A42000F0D9FA00F0E3FA5A4800E05A4827
:1001600000F01EFC00F036FA00F0A4FA0028FBD1E3
:1001700000F0BEFA002806D0F02000F0C5FA00F02A
:10018000D5FA524800E0524800F00AFC00F022FA8A
:1001900000F090FA0028FBD100F0AAFA002806D05F
:1001A000552000F0B1FA00F0C1FA4A4800E0484892
:1001B00000F0F6FB00F00EFA00F07CFA0028FBD10C
:1001C00000F096FA002803D000F0B6FA424800E0AA
:1001D000424800F0E5FB00F0FDF900F06BFA002862
:1001E000FBD100F06FFA002801D03D4800E03D4807
:1001F00000F0D6FB00F0EEF90A2000F0E1F900F083
:1002000059FA0028FBD100F05DFA002806D0A4209E
:1002100000F07AFA00F084FA2A4800E02A4800F058
:10022000BFFB00F0D7F900F045FA0028FBD100F041
:100230005FFA002806D0FB2000F066FA00F076FA9C
:10024000224800E0224800F0ABFB00F0C3F900F0C8
:1002500031FA041EFBD100F04BFA002806D0201C16
:1002600000F052FA00F062FA1A4800E0184800F074
:1002700097FB00F0AFF900F01DFA0028FBD100F069
:1002800037FA002803D000F057FA134800E013486B
:1002900000F086FB00F09EF900F00CFA0028FBD17C
:1002A00000F010FA002801D00D4800E00D4800F0E1
:1002B00077FB00F08FF9642000F082F910BDC04692
:1002C000C40D0000D30D0000DD0D0000F50D000091
:1002D000060E0000280E00003A0E0000440E00003A
:1002E000620E0000690E000010B500F0E3F900286E
:1002F000FBD100F0E7F9002806D0A42000F004FAB2
:1003000000F00EFA5A4800E05A4800F049FB00F0AD
:1003100061F900F0CFF9041EFBD100F0E9F90028E3
:1003200006D0201C00F0F0F900F000FA524800E07E
:10033000524800F035FB00F04DF900F0BBF9002801
:10034000FBD100F0D5F9002803D000F0F5F94C48B6
:1003500000E04C4800F024FB00F03CF900F0AAF962
:100360000028FBD100F0AEF9002801D0464800E09B
:10037000464800F015FB00F02DF90A2000F020F9A6
:1003800000F098F90028FBD100F09CF9002806D075
:10039000A52000F0B9F900F0C3F9354800E0354870
:1003A00000F0FEFA00F016F900F096F90028FBD0F4
:1003B00000F0BCF900F0AEF98008C0B200F0FCFA21
:1003C00000F08AF90028FBD000F0B0F900F0A2F9A3
:1003D0008008C0B200F0F0FA00F07EF90028FBD0EF
:1003E00000F0A4F900F096F98008C0B200F0E4FA39
:1003F00000F072F90028FBD000F098F900F08AF9BB
:100400008008C0B200F0D8FA00F066F90028FBD0EE
:1004100000F08CF900F07EF98008C0B200F0CCFA50
:1004200000F05AF90028FBD000F080F900F072F9D2
:100430008008C0B200F0C0FA00F03CF90028FBD1FF
:1004400000F07AF90E4800F0ABFA00F0C3F800F0C3
:1004500031F90028FBD100F035F9002801D00A4815
:1004600000E00A4800F09CFA00F0B4F810BDC04665
:10047000D30D0000DD0D0000F50D0000060E00009C
:100480003A0E0000440E0000620E0000690E0000EB
:1004900008B5FFF73DFEE120400200F01DF80C48D2
:1004A00000F068F800F0D4F8FA20C00000F088F8F6
:1004B000FFF742FE0A2000F083F8FA20800000F0E7
:1004C0007FF8FFF711FF034800F06AFAF5E7C0462E
:1004D00030750000740E0000F7B580211A4CC90178
:1004E000221DD36F261C0B430821D3676268F036A8
:1004F0008A436260636801220B436360231C943368
:100500001A60FE3232601968104B071C1868104DD3
:10051000400000F0C5FB0309391C181C019300F0D2
:10052000BFFB013828623068296A019B36680130B8
:1005300001317943584300F0B3FBF64305233618E5
:10054000F43426602B60F7BD0080044000000010EA
:10055000004006400122054BD968114204D0DA6000
:10056000034A1368013313607047C04600400040DF
:100570000400001030B5802480250D4BE400191DC7
:10058000CA6F2243CA675968A94359605A688021D3
:100590002A435A600022074B09061A60064B18606E
:1005A0001A680A431A6001229A60044B1C6030BD2D
:1005B00000800440040000100040004000E100E022
:1005C0000022034B1A601A688242FCD37047C0466F
:1005D0000400001010B5174C63681B075B0F032B5A
:1005E00002D1154800F0DCF963681B075B0F042B90
:1005F00002D1124800F0D4F963681B075B0F02D1E7
:100600000F4800F0CDF963681B075B0F012B02D187
:100610000C4800F0C5F963681B075B0F022B02D181
:10062000094800F0BDF963689B0102D5074800F056
:10063000B7F910BD00000540860E0000950E0000C1
:10064000A10E0000A80E0000B80E0000C90E0000A8
:10065000202010B54024144B1A1DD16F0143D167DF
:100660005868A04358605968802021435960802110
:10067000D36FC9020B43D3670C4B283C5A69C000A7
:10068000A2435A615969014359619969A14399612A
:100690009A6902439A618022054B52005A610022F6
:1006A0005A6201321A6010BD0080044000400440CC
:1006B000000005400120024B5B6898437047C0462C
:1006C00000000540034B58680007400F4342584163
:1006D000C0B2704700000540044B58680007400F47
:1006E000013843425841C0B27047C046000005403F
:1006F000044B58680007400F023843425841C0B2CB
:100700007047C04600000540014B98627047C046E4
:1007100000000540014B986AC0B2704700000540D8
:100720000222014B1A627047000005400122014B72
:100730001A627047000005400422014B1A6270479C
:100740000000054008B5002805D00368197003684B
:100750005A1C026002E0081C00F062FA08BDF7B5FE
:10076000141C0090019120270A1C002C0FDD019918
:10077000501A1178002901D00132F8E7A04201DABD
:10078000241A00E00C1C20279A0700D510370025FA
:10079000DB070CD4251C002D05DD0098391CFFF764
:1007A000D1FF013DF7E7E543ED172540641B2E1C03
:1007B000019B5B1B995D002904D00098FFF7C2FFE5
:1007C0000136F5E7251C002D05DD0098391CFFF7E3
:1007D000B9FF013DF7E7E043C01704403019FEBD03
:1007E000F0B587B0171C061C0C1C03AA002908D101
:1007F000302351701370111C0D9B0C9AFFF7AFFF43
:1008000040E0002101918B4206D00A2F04D18C4296
:1008100002DA01236442019300230F25D37202AB55
:10082000ED18002C11D0201C391C00F0BFFA09294A
:1008300002DD0E9B3A3BC9183031013D2970201C66
:10084000391C00F02DFA041CEBE7019B002B12D0A1
:100850000C9B002B0BD00D9B9B0708D5301C2D212A
:10086000FFF770FF0C9B0134013B0C9303E02D2339
:100870000024013D2B70301C291C0C9A0D9BFFF7A6
:100880006EFF201807B0F0BDF0B5061C0D1C00244B
:1008900089B005922B78002B05D0252B73D1697870
:1008A0006A1C002905D1002E74D0002233681A700A
:1008B00070E0252966D000232D2901D1AA1C01331F
:1008C000151C2A78302A03D1022201351343F8E798
:1008D00000222978081C3038C7B2092F04D80A2111
:1008E0004A4301351218F4E7732908D10599081D08
:1008F000059008682949002840D0011C3EE0642981
:100900000ED1059901936123081D009205900A22DA
:10091000301C02930968603BFFF762FF241837E040
:10092000782906D105990193081D0590009261234D
:1009300007E058290AD10193412305990092081D27
:1009400005900293301C096810220BE075290BD129
:10095000059901936123081D009205900A22301C1D
:10096000029309680023D7E7632911D10598011D77
:100970000068059107A9087000204870301CFFF737
:10098000EEFECBE7151C2978301CFFF7DBFE0134A7
:1009900001357FE7201C09B0F0BDC046D70E00002E
:1009A0000FB407B504AA02CA00200192FFF76CFF3A
:1009B00003B008BC04B0184708B53F2800D9A1E02F
:1009C00000F064F920222426282A2C2E30323436D6
:1009D000383A3C3E40424446484A4C4E50525456A7
:1009E000585A5C5E60626466686A6C6E7072747697
:1009F000787A7C7E80828486888A8C8E9092949687
:100A0000989A9C9E41487EE041487CE041487AE0CB
:100A1000414878E0414876E0414874E0414872E05E
:100A2000414870E041486EE041486CE041486AE06E
:100A3000414868E0414866E0414864E0414862E07E
:100A4000414860E041485EE041485CE041485AE08E
:100A5000414858E0414856E0414854E0414852E09E
:100A6000414850E041484EE041484CE041484AE0AE
:100A7000414848E0414846E0414844E0414842E0BE
:100A8000414840E041483EE041483CE041483AE0CE
:100A9000414838E0414836E0414834E0414832E0DE
:100AA000414830E041482EE041482CE041482AE0EE
:100AB000414828E0414826E0414824E0414822E0FE
:100AC000414820E041481EE041481CE041481AE00E
:100AD000414818E0414816E0414814E0414812E01E
:100AE000414810E041480EE041480CE041480AE02E
:100AF000414808E0414806E0414804E0414802E03E
:100B0000414800E04148FFF74BFF08BDDF0E000001
:100B1000E40E0000E90E0000EE0E0000F30E0000EF
:100B2000F80E0000FD0E0000020F0000070F00008D
:100B30000C0F0000DE0E0000E30E0000E80E0000C7
:100B4000ED0E0000F20E0000F70E0000FC0E00009B
:100B5000010F0000060F00000B0F0000100F000037
:100B6000150F00001A0F00001F0F0000240F0000D7
:100B7000290F00002E0F0000330F0000380F000077
:100B80003D0F0000420F0000470F00004C0F000017
:100B9000510F0000560F00005B0F0000600F0000B7
:100BA000650F00006A0F00006F0F0000740F000057
:100BB000790F00007E0F0000830F0000880F0000F7
:100BC0008D0F0000920F0000970F00009C0F000097
:100BD000A10F0000A60F0000AB0F0000B00F000037
:100BE000B50F0000BA0F0000BF0F0000C40F0000D7
:100BF000C90F0000CE0F0000D30F0000D80F000077
:100C0000DD0F0000E20F0000E70F0000EC0F000016
:100C1000024B9A685207FBD5D861704700400640E6
:100C200008B5FFF7F5FF08BD14491548CA6F10B5A0
:100C30000243CA670022134B1A6401325A64596C8A
:100C4000104AC907FBD524218E20802491608000A2
:100C50001158A14311500121D8680A4A0842FAD01C
:100C60000320106751675A6FD207FCD50222054B4B
:100C70009A670022044B1A6110BDC04604800440EC
:100C800080000400008004400000044002B471466B
:100C900049084900095C49008E4402BC7047C046BF
:100CA000002243088B4274D303098B425FD3030AAB
:100CB0008B4244D3030B8B4228D3030C8B420DD3BE
:100CC000FF22090212BA030C8B4202D3121209024C
:100CD00065D0030B8B4219D300E0090AC30B8B428A
:100CE00001D3CB03C01A5241830B8B4201D38B0338
:100CF000C01A5241430B8B4201D34B03C01A5241DD
:100D0000030B8B4201D30B03C01A5241C30A8B421F
:100D100001D3CB02C01A5241830A8B4201D38B020A
:100D2000C01A5241430A8B4201D34B02C01A5241AE
:100D3000030A8B4201D30B02C01A5241CDD2C30920
:100D40008B4201D3CB01C01A524183098B4201D39C
:100D50008B01C01A524143098B4201D34B01C01A87
:100D6000524103098B4201D30B01C01A5241C308FF
:100D70008B4201D3CB00C01A524183088B4201D36E
:100D80008B00C01A524143088B4201D34B00C01A5A
:100D90005241411A00D20146524110467047FFE7C6
:100DA00001B5002000F00CF802BDC0460029F7D0C4
:100DB00003B5FFF775FF0EBC4243891A1847C046BA
:100DC0007047C0462A2A2A20496E6974202A2A2A96
:100DD0000D0A00737461727465643A200073746163
:100DE0007274206572726F723A206E6F742069643B
:100DF0006C653A2000636F6E74696E756564206F70
:100E00006E63653A2000636F6E74696E7565206568
:100E100072726F723A206E6F74207265616479200D
:100E2000746F2054783A2000636F6E74696E756534
:100E3000642074776963653A200073746F7070651D
:100E4000643A200073746F70206572726F723A207A
:100E50006E6F7420726561647920746F2054783AE3
:100E6000200049646C653A20004E6F742069646C00
:100E7000653A20002A2A2A2A20454F4C202A2A2A6D
:100E80002A0D0A0D0A004E41434B206164647265CD
:100E900073730D0A004E41434B20646174610D0A67
:100EA0000069646C650D0A005265636569766520AA
:100EB00072656164790D0A005472616E736D6974B4
:100EC0002072656164790D0A0053434C2074696D8A
:100ED000656F75740D0A00286E756C6C29003130D1
:100EE0000A0D0031310A0D0031320A0D0031330A8A
:100EF0000D0031340A0D0031350A0D0031360A0D6E
:100F00000031370A0D0031380A0D0031390A0D0061
:100F100032300A0D0032310A0D0032320A0D003231
:100F2000330A0D0032340A0D0032350A0D00323614
:100F30000A0D0032370A0D0032380A0D0032390A24
:100F40000D0033300A0D0033310A0D0033320A0D23
:100F50000033330A0D0033340A0D0033350A0D0017
:100F600033360A0D0033370A0D0033380A0D0033CB
:100F7000390A0D0034300A0D0034310A0D003432C4
:100F80000A0D0034330A0D0034340A0D0034350ADA
:100F90000D0034360A0D0034370A0D0034380A0DBE
:100FA0000034390A0D0035300A0D0035310A0D00C4
:100FB00035320A0D0035330A0D0035340A0D00357F
:100FC000350A0D0035360A0D0035370A0D00353863
:100FD0000A0D0035390A0D0036300A0D0036310A87
:100FE0000D0036320A0D0036330A0D0047414141EB
:0C0FF0004141482121210A0D00000000B1
:040FFC0080C3C901E4
:00000001FF
